S010000031306D6F746F72732E737265630F
S11300000C942A000C9447000C9447000C9447006D
S11300100C9447000C9447000C9447000C94470040
S11300200C9447000C9447000C9447000C94470030
S11300300C9447000C9447000C9447000C94470020
S11300400C9447000C9447000C9447000C94470010
S11300500C94470011241FBECFE5D8E0DEBFCDBF0E
S113006010E0A0E6B0E0E2EFF6E002C005900D92E9
S1130070A036B107D9F710E0A0E6B0E001C01D92A8
S1130080AF37B107E1F70E944C030C9477030C944B
S113009000008FB582608FBD8EB589618EBD8FE102
S11300A09EE497BD86BD08958FB580688FBD86E1B7
S11300B09EE49BBD8ABD08958FB580628FBD86E1A5
S11300C09EE499BD88BD0895089508958FB58F77EE
S11300D08FBD1BBC1ABC08958FB58F7D8FBD19BC15
S11300E018BC089583B7836083BF89B7816089BFD3
S11300F012BE089583B78E7F83BF83B78D7F83BF7E
S113010089B78E7F89BF89EF90E00197F1F700C02E
S1130110000012BE089510927E0010927D0010928D
S11301207C00109276001092750010927400109268
S1130130730010927200109271001092700010926D
S11301406F0010926E0010926D0010926A0010926F
S11301506900109268001092670010926600109275
S11301606500109264001092630010926200109275
S113017061000E947A0015BA0895662309F444C008
S113018085309105A1F1863091059CF4823091056A
S113019041F1833091052CF48130910509F07CC044
S11301A01EC083309105F9F08430910509F074C0C4
S11301B01CC08830910509F18930910544F48630DA
S11301C09105B9F08730910509F066C014C08930F3
S11301D09105A9F08A30910509F05EC012C0D89A41
S11301E03FC0DA9A40C0DC9A41C0DE9A42C0A89A65
S11301F043C0AA9A44C0AC9A45C0AE9A46C0909AED
S113020047C0969A9798089585309105A1F1863054
S113021091058CF48230910529F18330910524F401
S113022081309105C9F51BC083309105F1F084300C
S1130230910591F51DC08830910531F18930910502
S11302403CF486309105D1F08730910529F519C029
S113025089309105E1F08A309105F1F41BC0D898FA
S1130260D9980895DA98DB980895DC98DD98089574
S1130270DE98DF980895A898A9980895AA98AB984D
S11302800895AC98AD980895AE98AF980895909855
S11302909198089596989798089587B3806A87BB34
S11302A0BE98C69A8DB1816D8DB9089587B3806A61
S11302B087BBBE98C69A8DB181658DB90895BE98E5
S11302C0C69ABD98C59ABC98C49ABF98C79A6E9AA4
S11302D06C9808958FB9779BFECF8FB1089587B33B
S11302E0806A87BBBE98C69A6E986C986898089581
S11302F0BE9ABD98C59ABF98C79A6E986C9808958F
S113030081E60E946A018FB180937B00883589F071
S1130310893518F4873509F505C0893589F08A359A
S1130320E1F415C087E50E946A018FB180937A00D9
S1130330089588E50E946A018FB180937900089539
S113034089E70E946A018FB18093780008958AE555
S11303500E946A018FB180937700089580917B0099
S1130360893509F458C18A3540F5853409F4A2C0A9
S1130370863480F4823409F461C0833420F48134F7
S113038009F089C147C0833409F46CC0843409F08E
S113039082C17CC0883409F4C7C0893438F48634F7
S11303A009F49CC0873409F076C1ACC0893409F4DF
S11303B0CFC08A3409F06FC1DFC0863609F40FC19B
S11303C0873698F4833609F4FBC0843638F48136D2
S11303D009F4ECC0823609F05EC1EDC0843609F43C
S11303E0F4C0853609F057C1F5C0893609F406C151
S11303F08A3638F4873609F4F7C0883609F04BC1D9
S1130400F8C08A3609F4FFC08F3F09F044C1109246
S11304107B00089588B3876088BB8FE996E8A1E0E4
S113042081509040A040E1F700C00000C098C198FE
S1130430C29810927B0081E090E0B1C088B38760DD
S113044088BB8FE996E8A1E081509040A040E1F795
S113045000C00000C098C198C29810927B0082E04E
S113046090E09DC088B3876088BB8FE996E8A1E0DF
S113047081509040A040E1F700C00000C098C198AE
S1130480C29810927B0083E090E089C088B38760B3
S113049088BB8FE996E8A1E081509040A040E1F745
S11304A000C00000C098C198C29810927B0084E0FC
S11304B090E075C088B3876088BB8FE996E8A1E0B7
S11304C081509040A040E1F700C00000C098C1985E
S11304D0C29810927B0085E090E061C088B3876089
S11304E088BB8FE996E8A1E081509040A040E1F7F5
S11304F000C00000C098C198C29810927B0086E0AA
S113050090E04DC088B3876088BB8FE996E8A1E08E
S113051081509040A040E1F700C00000C098C1980D
S1130520C29887E090E03BC088B3876088BB8FE9BE
S113053096E8A1E081509040A040E1F700C000009F
S1130540C098C198C29810927B0088E090E027C0C0
S113055088B3876088BB8FE996E8A1E0815090401A
S1130560A040E1F700C00000C098C198C298109262
S11305707B0089E090E013C088B3876088BB8FE973
S113058096E8A1E081509040A040E1F700C000004F
S1130590C098C198C29810927B008AE090E061E014
S11305A00E94BD0081E080936000089510927B005A
S11305B081E090E02CC010927B0082E090E027C0A4
S11305C010927B0083E090E022C010927B0084E0D4
S11305D090E01DC010927B0085E090E018C010925E
S11305E07B0086E090E013C010927B0087E090E0EF
S11305F00EC010927B0088E090E009C010927B004E
S113060089E090E004C010927B008AE090E060E012
S11306100E94BD00089510927B0088B391E0892761
S113062088BB88B392E0892788BB88B394E0892784
S113063088BB81E090E060E00E94BD0082E090E031
S113064060E00E94BD0083E090E060E00E94BD0095
S113065084E090E060E00E94BD0085E090E060E00E
S11306600E94BD0086E090E060E00E94BD0087E04B
S113067090E060E00E94BD0088E090E060E00E94AD
S1130680BD0089E090E060E00E94BD008AE090E057
S113069060E00E94BD00089584B7806884BF84B779
S11306A0806884BF8AB39FEF9ABB87B38F6087BB90
S11306B084B394BB81B3836F81BB1BBAC098C198C8
S11306C0C298C39815BA82B38C6082BB0E94490059
S11306D00E9454000E945C000E945F0180E00E941E
S11306E06A018FB180937B000E94AE01F7CFF8942A
S10506F0FFCF36
S9030000FC
