:1000000012C02CC02BC02AC029C028C027C026C0BF
:1000100025C024C023C022C021C020C01FC01EC0D4
:100020001DC01CC01BC011241FBECFE5D4E0DEBF25
:10003000CDBF10E0A0E6B0E0EEEBF3E002C005902B
:100040000D92A036B107D9F710E0A0E6B0E001C0EC
:100050001D92A936B107E1F7BBD0AFC1D1CF85B3AF
:100060008F6385BB08958330E1F0843028F48130BC
:1000700041F0823069F50DC08430D9F0853041F50A
:1000800020C0A89883ED90E30197F1F700C000002D
:100090000895A99883ED90E30197F1F700C000005F
:1000A0000895AA9883ED90E30197F1F700C000004E
:1000B0000895AB9883ED90E30197F1F700C000003D
:1000C0000895CDDF83ED90E30197F1F700C00000C4
:1000D000089580916000882311F0109260000895C7
:1000E000AC98AD988FE996E8A1E081509040A0408F
:1000F000E1F700C00000AC9AAD9A8FE996E8A1E064
:1001000081509040A040E1F700C000000895AC98F5
:10011000AD9883ED90E30197F1F700C00000AC9A31
:10012000AD9A83ED90E30197F1F700C00000AC9821
:10013000AD9883ED90E30197F1F700C00000AC9A11
:10014000AD9A83ED90E30197F1F700C00000AC9801
:10015000AD9883ED90E30197F1F700C00000AC9AF1
:10016000AD9A83ED90E30197F1F700C00000AC98E1
:10017000AD9883ED90E30197F1F700C00000AC9AD1
:10018000AD9A83ED90E30197F1F700C00000AC98C1
:10019000AD9883ED90E30197F1F700C00000AC9AB1
:1001A000AD9A83ED90E30197F1F700C00000AC98A1
:1001B000AD9883ED90E30197F1F700C00000AC9A91
:1001C000AD9A83ED90E30197F1F700C00000089528
:1001D00084B38F6384BB85B38F6385BB87B387BBD1
:1001E00088B38FEF88BB91B391BB92B382BB37DFEB
:1001F0008EDF01E010E0C1E0AA24BB246894A2F8DD
:100200000F2EF3E0CF2EDD24F02DEE24FF24689492
:10021000E1F886B380FD09C0109366000093650085
:10022000C09364008C2F1FDFF4CFB19909C01093E5
:10023000660000936500C09364008C2F14DFE9CF43
:10024000B29909C01093660000936500C0936400E2
:100250008C2F09DFDECFB39909C01093660000939D
:100260006500C09364008C2FFEDED3CFB49909C023
:10027000F0926600E0926500C093640082E0F3DED5
:10028000C8CFB59909C0F0926600E0926500C093AE
:10029000640082E0E8DEBDCFB69909C0F092660046
:1002A000E0926500C093640082E0DDDEB2CFB799D2
:1002B00009C0F0926600E0926500C093640082E09D
:1002C000D2DEA7CF80B380FD09C0D0926600C09275
:1002D0006500C093640083E0C6DE9BCF819909C0AE
:1002E000D0926600C0926500C093640083E0BBDEDC
:1002F00090CF829909C0D0926600C0926500C093E9
:10030000640083E0B0DE85CF839909C0D092660097
:10031000C0926500C093640083E0A5DE7ACF849923
:1003200009C0B0926600A0926500C093640084E0AA
:100330009ADE6FCF859909C0B0926600A0926500E1
:10034000C093640084E08FDE64CF869909C0B092C8
:100350006600A0926500C093640084E084DE59CFFB
:10036000879909C0B0926600A0926500C0936400AE
:1003700084E079DE4ECFB09B4CCFB19B4ACFB29B8D
:1003800048CFB39B46CFB49B44CFB59B42CFB69BDF
:1003900040CFB79B3ECF809B3CCF819B3ACF829B87
:1003A00038CF839B36CF849B34CF859B32CF869BBF
:0E03B00030CF879B2ECF53DE2CCFF894FFCF9B
:00000001FF
