S016000070617373776F72642062617365642E737265637C
S11300000C942A000C9447000C9447000C9447006D
S11300100C9447000C9447000C9447000C94470040
S11300200C9447000C9447000C9447000C94470030
S11300300C9447000C9447000C9447000C94470020
S11300400C9447000C9447000C9447000C94470010
S11300500C94470011241FBECFE5D4E0DEBFCDBF12
S113006011E0A0E6B0E0E0E3FBE002C005900D92F1
S1130070AE36B107D9F711E0AEE6B1E001C01D928A
S1130080A338B107E1F70E9474040C9496050C940C
S1130090000080B380FF07C0819B0DC0829B14C009
S11300A0839922C01AC081E08093810180938201E8
S11300B023C0819907C082E08093810181E080930D
S11300C082011AC0829907C083E08093810181E094
S11300D08093820111C0839907C084E080938101D9
S11300E081E08093820108C0949895989698979897
S11300F080B380FDDECFD7CF949A89EF90E001974B
S1130100F1F700C00000809B2CC0819B2AC0829B19
S113011028C0839B26C081E0809380019498089531
S1130120819B28C0829B26C0839B24C082E080934D
S1130130800195980895819B26C0829B24C0839B4F
S113014022C083E08093800196980895819BD4CF48
S1130150829BD2CF839BD0CF84E0809380019798F9
S11301600895959A89EF90E00197F1F700C0000097
S11301708099D6CF969A89EF90E00197F1F700C065
S113018000008099D8CF979A89EF90E00197F1F712
S113019000C000008099DACFAFCF80918101813017
S11301A0C9F490918001913019F480937E010895EF
S11301B0923021F482E080937E010895933021F4FB
S11301C083E080937E0108959430E1F581E4809387
S11301D07E0108958230D1F480918001813021F430
S11301E084E080937E010895823021F485E0809339
S11301F07E010895833021F486E080937E01089582
S11302008430D1F582E480937E0108958330D1F463
S113021080918001813021F487E080937E010895EC
S1130220823021F488E080937E010895833021F4A4
S113023089E080937E0108958430F1F483E480930F
S11302407E0108958430C1F480918001813021F4CD
S113025081E580937E010895823019F410927E0125
S11302600895833021F482E580937E0108958430DB
S113027019F484E480937E01089580916C01909137
S11302806D01FC01EE0FFF1FEC58FE4F20917E0123
S113029020831182019790936D0180936C010097E4
S11302A049F484E090E090936D0180936C0181E0C7
S11302B080937F01089587B3806A87BBBE98C69AEE
S11302C08DB1816D8DB9089587B3806A87BBBE985F
S11302D0C69A8DB181658DB90895BE9AC698BD98A8
S11302E0C59ABC98C49ABF98C79A6E9A6C98089598
S11302F08FB9779BFECF8FB1089580917F018823BA
S1130300C1F010927F018FEF0E94780180917C01EF
S11303100E94780180917A010E947801809178018D
S11303200E947801809176010E94780188E50E94FC
S11303307801089587B3806A87BBBE98C69A6E9881
S11303406C9868980895BE9ABD98C59ABF98C79A44
S11303506E986C980895C09A83E08A95F1F700002E
S1130360C09808951ABAC19A88B3887F88BBDF9B66
S113037004C00E94AB01DF99FCCF8FEF8ABB0895C4
S1130380CF93C82F0E94B201CBBB88B3897F88BBAF
S11303900E94AB011BBACF910895CF93C82F0E943E
S11303A0B201CBBBC198C29A0E94AB011BBACF91D8
S11303B00895CF93DF93EC018881882361F08A91BB
S11303C00E94CD0189EF90E00197F1F700C0000091
S11303D088818823A1F7DF91CF910895CF93DF938C
S11303E0EC018881882361F021960E94CD018FE081
S11303F097E20197F1F700C0000089918823A9F7DB
S1130400DF91CF91089583E294EF0197F1F700C053
S1130410000080917E01873009F451C0883070F467
S1130420833079F1843028F4813009F1823020F569
S11304305FC08530A9F18630C0F52DC08234D1F17A
S1130440833448F4893009F444C08930E8F18134B4
S113045009F05CC01BC0843409F454C08434F0F146
S1130460813509F440C0823509F050C046C080E6A9
S113047090E00E94EE01089582E690E00E94EE0171
S1130480089584E690E00E94EE01089586E690E0E7
S11304900E94EE01089588E690E00E94EE0108951E
S11304A08AE690E00E94EE0108958CE690E00E94B6
S11304B0EE0108958EE690E00E94EE01089580E733
S11304C090E00E94EE01089582E790E00E94EE0120
S11304D0089584E790E00E94EE01089586E790E095
S11304E00E94EE01089588E790E00E94EE010895CD
S11304F08AE790E00E94EE0108958CE790E00E9464
S1130500EE0108958EE790E00E94EE010895CF93E6
S1130510DF93EC018881882331F021960E94CD017C
S113052089918823D9F7DF91CF91089583EF91E0E2
S11305300197F1F700C0000080E80E94C00183EF3A
S113054091E00197F1F700C00000089583EF91E076
S11305500197F1F700C0000080EC0E94C00183EF16
S113056091E00197F1F700C00000089583EF91E056
S11305700197F1F700C0000084E90E94C00183EFF5
S113058091E00197F1F700C00000089583EF91E036
S11305900197F1F700C0000084ED0E94C00183EFD1
S11305A091E00197F1F700C00000089585EA9EE00C
S11305B00197F1F700C0000081E00E94C00183EFC1
S11305C091E00197F1F700C000000E94960283EFCA
S11305D091E00197F1F700C0000080E890E00E94EC
S11305E0EE0183EF91E00197F1F700C000000E9453
S11305F0A60283EF91E00197F1F700C0000082E9C1
S113060090E00E94EE0183EF91E00197F1F700C0C2
S113061000000E94B60283EF91E00197F1F700C059
S1130620000087EA90E00E94EE0183EF91E00197D9
S1130630F1F700C000000E94C60283EF91E0019729
S1130640F1F700C000008BEB90E00E94EE0183EF15
S113065091E00197F1F700C0000083EC99E0019765
S1130660F1F700C0000010928201109281011092F3
S1130670800110927E0110927D0110927C011092F3
S11306807B0110927A0110927901109278011092F4
S1130690770110927601109275011092740184E032
S11306A090E090936D0180936C011092730110920D
S11306B072011092700110927F01109271011092D8
S11306C06F0110926E01089583EF91E00197F1F7A5
S11306D000C0000080E80E94C00183EF91E0019710
S11306E0F1F700C0000083EF91E00197F1F700C03B
S11306F0000080ED90E00E94870283EF91E0019773
S1130700F1F700C000000895CF93DF93809170014A
S1130710813009F066C00E9464030E94960283EF50
S113072091E00197F1F700C0000085EE90E00E948F
S1130730EE01A3EFB1E01197F1F700C000008FE9DB
S113074096E8A1E081509040A040E1F700C000008D
S113075010927001A3ECB9E01197F1F700C000000A
S1130760C2E0D1E080E50E9478018FB180937101ED
S11307708D3DC1F38F3619F5109271010E94640307
S11307800E94960283EF91E00197F1F700C0000008
S113079083EF90E00E94EE01A7E8B3E11197F1F72F
S11307A000C000008FE996E8A1E081509040A0408D
S11307B0E1F700C0000081E080937F0112C081371F
S11307C089F6109271010E9464030E949602A3EFBD
S11307D0B1E01197F1F700C00000CE010E94EE01D4
S11307E0C1CFDF91CF910895CF9381E00E94C001E2
S11307F083EF91E00197F1F700C0000085E191E0FB
S11308000E94EE01A3EFB1E01197F1F700C00000E0
S1130810C1E09A9B06C09B9B04C09C9B02C09D990F
S113082027C0C093700183EC99E00197F1F700C0F1
S113083000000E94840380917F01882351F30E9469
S113084064030E94960284E291E00E94EE01A3EF09
S1130850B1E01197F1F700C000008FE39DE0A3E041
S113086081509040A040E1F700C00000CF9108956E
S11308709A9BCFCF9B9BCDCF9C9BCBCF9D9BC9CF2E
S113088010927001C6CF0E9464030E94960283EF07
S113089091E00197F1F700C0000083E391E00E942A
S11308A0EE0183EF91E00197F1F700C00000809B17
S11308B0FECF819BFCCF829BFACF839BF8CF0E9413
S11308C049000E94CD000E9403020E943D018091D4
S11308D07F01882361F3949895989698979893E06C
S11308E09A95F1F70000089584B7806884BF84B7AF
S11308F0806884BFBB9AC39880EF81BB8FE082BBC2
S113090014BA8FEF85BB87B3876087BB85EA9EE007
S11309100197F1F700C0000081E00E94C001A3EF3D
S1130920B1E01197F1F700C0000088E30E94C00114
S1130930B0E1BA95F1F700C08CE00E94C00180E1FB
S11309408A95F1F700C00E946D01FF24F3940F2EE5
S1130950F8E5AF2EF1E0BF2EF02D0F2EF4E4CF2EEC
S1130960F1E0DF2EF02DC9E3D1E004E611E00E94AE
S1130970D602A3EFB1E01197F1F700C000000E9486
S1130980430488E70E9478018FB1809371010E942B
S1130990CD01809171018F3F11F40000F2CF8137B6
S11309A019F40E947D01EDCF8135A1F40E94640306
S11309B00E949602CE010E94EE0183EF91E001971E
S11309C0F1F700C000000E94F40380917F018823A6
S11309D0C1F22AC0863699F4F0927F010E94640322
S11309E00E949602C6010E94EE018FE79AE1A6E0FA
S11309F081509040A040E1F700C0000015C084354C
S1130A0009F0BFCFF0927F010E9464030E94960216
S1130A10C5010E94EE018FE79AE1A6E08150904063
S1130A20A040E1F700C000008FE40E9478018FB17C
S1130A30809371018137C1F70E9464030E9496027A
S1130A40A3EFB1E01197F1F700C00000C8010E94C4
S1130A50EE0183EF91E00197F1F700C00000A7E8F1
S1130A60B3E11197F1F700C0000081CF83EF91E06B
S1130A700197F1F700C0000080EC0E94C00183EFF1
S1130A8091E00197F1F700C0000083EF91E0019736
S1130A90F1F700C0000080ED90E00E94870283EF30
S1130AA091E00197F1F700C00000089583EF91E011
S1130AB00197F1F700C0000084E90E94C00183EFB0
S1130AC091E00197F1F700C0000083EF91E00197F6
S1130AD0F1F700C0000080ED90E00E94870283EFF0
S1130AE091E00197F1F700C00000089583EF91E0D1
S1130AF00197F1F700C0000084ED0E94C00183EF6C
S1130B0091E00197F1F700C0000083EF91E00197B5
S1130B10F1F700C0000080ED90E00E94870283EFAF
S1130B2091E00197F1F700C000000895F894FFCF19
S1130B3031003200330041003400350036004200F9
S1130B4037003800390043002A00300023004400F5
S1130B505345525645535445522056454E44494EEA
S1130B604700446F776E6C6F61642041505020746D
S1130B706F2053686F7000202054797065202753CC
S1130B804552564553544552272000466F7220481B
S1130B90656C703A203737333736393832303000A5
S1130BA02020202020202020202020202020202041
S1130BB020202020005468616E6B20596F75203A04
S1130BC02D2900436F6D6520416761696E203A2DC0
S1130BD02900436F6D6520416761696E20536F6F13
S1130BE06E20212100506C65617365205761697422
S1130BF02E2E2E00506C6561736520436F6C6C65FE
S1130C0063740050494E3A200048414E47204F4EED
S1130C1020212100534F5252592121204E4F204967
S1130C206E7465726E657400494E56414C49442099
S1110C3050494E00486D6D6D2E2E2E000400AE
S9030000FC
