S02000003130206D6F746F7273206D617374657220636F6E74726F6C2E7372656312
S11300000C9434000C9451000C9451000C94510045
S11300100C9451000C9451000C9451000C94510018
S11300200C9451000C9451000C9451000C94510008
S11300300C9451000C9451000C9451000C945100F8
S11300400C9499040C9451000C9451000C9451009C
S11300500C9451000C9451000C9451000C945100D8
S11300600C9451000C94510011241FBECFEFD8E022
S1130070DEBFCDBF11E0A0E0B1E0E2E0F0E102C0FC
S113008005900D92A230B107D9F711E0A2E0B1E0DA
S113009001C01D92A931B107E1F70E949A060C94A0
S11300A0FF070C940000109218011092170110928F
S11300B0160110921501109214011092130110925E
S11300C01201109211011092100181E0809301013C
S11300D010920F0110920E0110920D0110920C015A
S11300E091E790930B0110920A0180930001109202
S11300F00901109208011092070110920201109256
S113010003011092040110920501109206015E9AF7
S113011028982998429845988FE39CE90197F1F72C
S113012000C00000089584B1886284B924982C9A90
S113013022982A9A8CB5816D8CBD089584B1886209
S113014084B985B1886285B924982C9A22982A9A10
S11301508CB583658CBD0895249A2C9825982D9A86
S113016023982B9A22982A9A8CB580648CBD8CB5DE
S11301708F7E8CBD08958130910531F443986EBD16
S11301800DB407FEFDCF08C08330910539F44498BF
S11301906EBD0DB407FEFDCF8EB5089508958CB5E0
S11301A08F7B8CBD8CB58F7E8CBD8CB58E7F8CBDCA
S11301B008958CB58F7B8CBD8CB58F7E8CBD0895D6
S11301C0CF93DF93D82FC62F81E090E06FEF0E948A
S11301D0BB008FE99FE00197F1F700C0000081E0C8
S11301E090E06FEF0E94BB008FE99FE00197F1F769
S11301F000C0000081E090E06FEF0E94BB008FE937
S11302009FE00197F1F700C00000DD2309F44AC024
S1130210C53081F1C63070F4C23001F1C33020F42E
S1130220C13009F08AC016C0C330E1F0C43009F00F
S113023084C01CC0C83051F1C93030F4C630F1F06C
S1130240C73009F07AC01EC0C93021F1CA3009F0A4
S113025074C024C081E090E061E46AC081E090E071
S113026062E466C081E090E063E462C081E090E013
S113027064E45EC081E090E065E45AC081E090E00F
S113028066E456C081E090E067E452C081E090E00B
S113029068E44EC081E090E069E44AC081E090E007
S11302A06AE446C0C53069F1C63068F4C230E9F08A
S11302B0C33020F4C13009F040C013C0C330C9F0CA
S11302C0C430D9F51AC0C83041F1C93028F4C63059
S11302D0E1F0C73091F51DC0C93019F1CA3069F594
S11302E024C081E090E061E623C081E090E062E612
S11302F01FC081E090E063E61BC081E090E064E60B
S113030017C081E090E065E613C081E090E066E606
S11303100FC081E090E067E60BC081E090E068E602
S113032007C081E090E069E603C081E090E06AE6FE
S11303300E94BB008EB580930A01DF91CF9108958E
S113034080910001882309F475C08FEF91EEA4E039
S113035081509040A040E1F700C0000083E090E0AD
S113036061E70E94BB008EB580930801883709F0CD
S113037042C0AFE3BCE91197F1F700C0000083E08D
S113038090E060E00E94BB008EB5809306018FE38D
S11303909CE90197F1F700C0000083E090E060E081
S11303A00E94BB008EB580930501AFE3BCE91197B1
S11303B0F1F700C0000083E090E060E00E94BB0021
S11303C08EB5809304018FE39CE90197F1F700C097
S11303D0000083E090E060E00E94BB008EB5809353
S11303E0030188B1846288B9AFE3BCE91197F1F7DE
S11303F000C00000AACF883509F0A7CF88B1846275
S113040088B985B1836085B98FEF92E5A7E0815003
S11304109040A040E1F700C0000042984598289819
S113042029988FEF92E5A7E081509040A040E1F732
S113043000C00000089580910601813009F045C094
S113044080910501823029F580910401813009F001
S113045050C180910301823009F04BC185B18360A2
S113046085B98FEF93EDA0E381509040A040E1F770
S113047000C0000081E090E06FEF0E94BB00AFE39A
S1130480BCE91197F1F700C0000081E090E061E45D
S1130490FBC0813009F02DC180910401813009F045
S11304A028C180910301813009F023C181E090E0EB
S11304B06FEF0E94BB00AFE3BCE91197F1F700C0F6
S11304C0000081E090E062E4DFC08230F1F48091CA
S11304D00501823009F00DC180910401823009F0D8
S11304E008C180910301823009F003C181E090E0EA
S11304F06FEF0E94BB00AFE3BCE91197F1F700C0B6
S1130500000081E090E063E4BFC08330F1F48091A7
S11305100501833009F0EDC080910401833009F0B6
S1130520E8C080910301833009F0E3C081E090E0EA
S11305306FEF0E94BB00AFE3BCE91197F1F700C075
S1130540000081E090E064E49FC08430F1F4809185
S11305500501843009F0CDC080910401843009F094
S1130560C8C080910301843009F0C3C081E090E0E9
S11305706FEF0E94BB00AFE3BCE91197F1F700C035
S1130580000081E090E065E47FC08530F1F4809163
S11305900501853009F0ADC080910401853009F072
S11305A0A8C080910301853009F0A3C081E090E0E8
S11305B06FEF0E94BB00AFE3BCE91197F1F700C0F5
S11305C0000081E090E066E45FC08630F1F4809141
S11305D00501863009F08DC080910401863009F050
S11305E088C080910301863009F083C081E090E0E7
S11305F06FEF0E94BB00AFE3BCE91197F1F700C0B5
S1130600000081E090E067E43FC08730F1F480911E
S11306100501873009F06DC080910401873009F02D
S113062068C080910301873009F063C081E090E0E5
S11306306FEF0E94BB00AFE3BCE91197F1F700C074
S1130640000081E090E068E41FC0883051F580919B
S11306500501883009F04DC080910401883009F00B
S113066048C080910301883009F043C081E090E0E4
S11306706FEF0E94BB00AFE3BCE91197F1F700C034
S1130680000081E090E069E40E94BB008FE39CE9F4
S11306900197F1F700C000008EB5809307011EBCDE
S11306A00895893031F580910501893011F58091E3
S11306B004018930F1F4809103018930D1F481E09F
S11306C090E06FEF0E94BB00AFE3BCE91197F1F734
S11306D000C0000081E090E06AE40E94BB008FE368
S11306E09CE90197F1F700C000008EB580930701E3
S11306F01EBC089580910C01853009F48AC08630AF
S113070090F4823009F458C0833030F48823F1F037
S1130710813009F0EFC035C0833009F45CC0843007
S113072009F0E8C067C0883009F4A0C0893038F403
S1130730863009F47DC0873009F0DCC088C0893078
S113074009F4A3C08A3009F0D5C0BAC085B183606A
S113075085B98FEF93EDA0E381509040A040E1F77D
S113076000C0000081E090E06FEF0E94BB00AFE3A7
S1130770BCE91197F1F700C0000081E090E060E06F
S113078092C085B1836085B98FEF93EDA0E381506A
S11307909040A040E1F700C0000081E090E06FEFDE
S11307A00E94BB00AFE3BCE91197F1F700C0000061
S11307B081E090E061E477C081E090E06FEF0E9417
S11307C0BB00AFE3BCE91197F1F700C0000081E082
S11307D090E062E468C081E090E06FEF0E94BB00AB
S11307E0AFE3BCE91197F1F700C0000081E090E0AD
S11307F063E459C081E090E06FEF0E94BB00AFE377
S1130800BCE91197F1F700C0000081E090E064E4D6
S11308104AC081E090E06FEF0E94BB00AFE3BCE907
S11308201197F1F700C0000081E090E065E43BC05F
S113083081E090E06FEF0E94BB00AFE3BCE9119749
S1130840F1F700C0000081E090E066E42CC081E094
S113085090E06FEF0E94BB00AFE3BCE91197F1F7A2
S113086000C0000081E090E067E41DC081E090E0FA
S11308706FEF0E94BB00AFE3BCE91197F1F700C032
S1130880000081E090E068E40EC081E090E06FEF4A
S11308900E94BB00AFE3BCE91197F1F700C0000070
S11308A081E090E069E40E94BB008FE39CE901973A
S11308B0F1F700C000008EB5809307011EBC0895B7
S11308C081E090E06FEF0E94BB00AFE3BCE91197B9
S11308D0F1F700C0000081E090E06AE40E94BB00F0
S11308E08FE39CE90197F1F700C000008EB5809377
S11308F007011EBC089585B5836085BDEEE6F0E072
S113090080818160808316BC089585B58E7F85BD06
S113091085B58D7F85BDEEE6F0E080818E7F808396
S11309208FE99FE00197F1F700C0000016BC5D98C5
S113093008951F920F920FB60F9211242F938F9345
S11309409F93809115019091160101969093160141
S11309508093150180911001882321F481E0809314
S1130960100133C0809115019091160182339105D5
S113097061F5109216011092150180911301909166
S11309801401019690931401809313018091130133
S11309909091140181309105C1F4109214011092C8
S11309A0130180911101909112010196909312010B
S11309B0809311018BB190E289278BB988B124E02F
S11309C0822788B988B1892788B99F918F912F91FF
S11309D00F900FBE0F901F9018958730B1F188309B
S11309E070F4833041F1843028F48130F1F08230A6
S11309F000F519C0853021F1863028F51FC08234F6
S1130A0081F1833438F4893039F1893018F1813433
S1130A10E1F525C0843469F1843438F1853461F119
S1130A20863499F52EC0589801C0589A59985A9806
S1130A300FC0589801C0589A599AF9CF589801C0D4
S1130A40589A599804C0589801C0589A599A5A9A71
S1130A505B980895589801C0589A599804C05898BA
S1130A6001C0589A599A5A980AC0589859985A9A4B
S1130A705B9A589A599802C05898599A5A9A5B9A0C
S1130A800895589A599A5A9A5B9A089589B180FDA3
S1130A9083C0499981C04A997FC04B997DC0109207
S1130AA00C01089549997AC04A9978C04B9976C047
S1130AB081E06FC0499B75C04A9973C04B9971C05E
S1130AC082E067C0499B6FC04A996DC04B996BC067
S1130AD083E05FC049996AC04A9B68C04B9966C06D
S1130AE084E057C0499964C04A9B62C04B9960C076
S1130AF085E04FC0499B5FC04A9B5DC04B995BC07A
S1130B0086E047C0499B59C04A9B57C04B9955C082
S1130B1087E03FC0499954C04A9952C04B9B50C08A
S1130B2088E037C049994EC04A994CC04B9B4AC093
S1130B3089E02FC0499B49C04A9947C04B9B45C097
S1130B4081E427C0499B43C04A9941C04B9B3FC0A5
S1130B5082E41FC049993EC04A9B3CC04B9B3AC0AB
S1130B6083E417C0499938C04A9B36C04B9B34C0B4
S1130B7084E40FC0499B33C04A9B31C04B9B2FC0B8
S1130B8085E407C0499B2DC04A9B2BC04B9B29C0C1
S1130B9086E480930C010895489984CF89B180FF3D
S1130BA089CF48998FCF89B180FF94CF48999ACF44
S1130BB089B180FF9FCF4899A5CF89B180FFAACF83
S1130BC04899B0CF89B180FFB5CF4899BBCF89B1DF
S1130BD080FFC0CF4899C6CF89B180FFCBCF489959
S1130BE0D1CF089554985C9A559A5D9885E38A9577
S1130BF0F1F70000089555985D9A85E38A95F1F719
S1130C00000008955098589A5198599A52985A9AAF
S1130C1053985B9A0895509A5898519A5998529AB1
S1130C205A98539A5B980895CF930E94F2050E94B4
S1130C300B065E988FE99FE00197F1F700C0000072
S1130C405E9AC1E04F996DC08FEF91EEA4E08150A0
S1130C509040A040E1F700C000000E947B04809116
S1130C6017018823B1F08FEF99EFA0E081509040F5
S1130C70A040E1F700C000000E94850495E09A9529
S1130C80F1F70000589859985A985B9842984598FB
S1130C90D9CF809110018823E1F380911701882333
S1130CA0F1F64C9934C0809118018823B1F7C093B0
S1130CB0180180910D0190910E01019690930E01FF
S1130CC080930D0183309105C9F08430910538F487
S1130CD08130910559F082309105F9F60AC08430CB
S1130CE0910579F085309105C1F60EC0809103011C
S1130CF002C0809104010E94ED04CFCF80910501D0
S1130D00FACF80910601F7CFC0931701C6CF4C9B51
S1130D10C4CF80911801882309F4BFCF1092180121
S1130D20BCCF4F9B8FCF80911701882309F48ACFC2
S1130D30CF91089584B1836C84B92E982F9887B18C
S1130D408C6387B93898399888B18B6188B9569A79
S1130D505E9A57985F9A78948FE19EE40197F1F731
S1130D6000C000000E949E00AFE1BEE41197F1F7BD
S1130D7000C0000081E780930B01C0E48FEF91EE87
S1130D80A4E081509040A040E1F700C0000083E05F
S1130D9090E060910B010E94BB008EB58093080126
S1130DA08C3021F495E09A95F1F727C1803509F04C
S1130DB080C0429A459AAFE3BCE91197F1F700C0AD
S1130DC0000081E090E06FEF0E94BB008FE39CE99C
S1130DD00197F1F700C0000081E090E069E50E940E
S1130DE0BB00AFE3BCE91197F1F700C0000083E05A
S1130DF090E06FE60E94BB008FEF99E6A8E1815076
S1130E009040A040E1F700C0000083E090E06FE66E
S1130E100E94BB00AFE3BCE91197F1F700C00000EA
S1130E200E9453008BB18C278BB98FEF99EFA0E010
S1130E3081509040A040E1F700C000008BB18C27A6
S1130E408BB98FEF99EFA0E081509040A040E1F77B
S1130E5000C000008BB18C278BB98FEF99EFA0E015
S1130E6081509040A040E1F700C000008BB18C2776
S1130E708BB98FEF99EFA0E081509040A040E1F74B
S1130E8000C000008BB18C278BB98FEF99EFA0E0E5
S1130E9081509040A040E1F700C000008BB18C2746
S1130EA08BB98FEF99EFA0E081509040A040E1F71B
S1130EB0A3C08F3F09F062CF8FEF91EEA4E0815081
S1130EC09040A040E1F700C0000083E090E060E0C3
S1130ED00E94BB008EB5809306018FEF91EEA4E0D3
S1130EE081509040A040E1F700C0000083E090E012
S1130EF060E00E94BB008EB5809305018FEF91EEF8
S1130F00A4E081509040A040E1F700C0000083E0DD
S1130F1090E060E00E94BB008EB5809304018FEFE7
S1130F2091EEA4E081509040A040E1F700C00000A1
S1130F3083E090E060E00E94BB008EB580930301E3
S1130F408FEF91EEA4E081509040A040E1F700C003
S1130F50000083E090E060E00E94BB008EB58093C7
S1130F600801883509F00ACF0E941B020E9414066A
S1130F7095E39A95F1F700000E9402064F990DC07F
S1130F800E944605A5E3AA95F1F700000E947A03A2
S1130F9080910C018823E1F402C089B1EFCF83E092
S1130FA090E064E50E94BB008FE39CE90197F1F7B0
S1130FB000C0000083E090E064E50E94BB00AFE362
S1130FC0BCE91197F1F700C000000E945300D6CE8F
S1130FD083E090E061E50E94BB008FE39CE9019708
S1130FE0F1F700C0000083E090E061E50E94BB00DF
S1130FF0AFE3BCE91197F1F700C00000BFCEF8944D
S1051000FFCF1C
S10510020101E6
S9030000FC
