:100000000C9434000C9451000C9451000C94510049
:100010000C9451000C9451000C9451000C9451001C
:100020000C9451000C9451000C9451000C9451000C
:100030000C9451000C9451000C9451000C945100FC
:100040000C94EA050C9451000C9451000C9451004E
:100050000C9451000C9451000C9451000C945100DC
:100060000C9451000C94510011241FBECFEFD8E026
:10007000DEBFCDBF11E0A0E0B1E0E4EAF3E102C0F1
:1000800005900D92A230B107D9F711E0A2E0B1E0DE
:1000900001C01D92A931B107E1F70E9439080C9403
:1000A000D0090C94000010921801109217011092C0
:1000B0001601109215011092140110921301109262
:1000C0001201109211011092100181E08093010140
:1000D00010920F0110920E0110920D0110920C015E
:1000E00091E790930B0110920A0180930001109206
:1000F000090110920801109207011092020110925A
:1001000003011092040110920501109206015E9AFB
:1001100028982998429845988FE39CE90197F1F730
:1001200000C00000089584B1886284B924982C9A94
:1001300022982A9A8CB5816D8CBD089584B188620D
:1001400084B985B1886285B924982C9A22982A9A14
:100150008CB583658CBD0895249A2C9825982D9A8A
:1001600023982B9A22982A9A8CB580648CBD8CB5E2
:100170008F7E8CBD08958130910539F443986EBD12
:100180000DB407FEFDCF8EB508958330910539F487
:1001900044986EBD0DB407FEFDCF8EB50895089549
:1001A0008CB58F7B8CBD8CB58F7E8CBD8CB58E7FD6
:1001B0008CBD08958CB58F7B8CBD8CB58F7E8CBD2E
:1001C0000895CF93DF93D82FC62F81E090E06FEF93
:1001D0000E94BB008FE99FE00197F1F700C000008B
:1001E00081E090E06FEF0E94BB008FE99FE00197F4
:1001F000F1F700C0000081E090E06FEF0E94BB00CB
:100200008FE99FE00197F1F700C00000DD2309F4BA
:100210007FC0C53009F446C0C63070F4C23039F131
:10022000C33020F4C13009F0F1C018C0C33041F12F
:10023000C43009F0EBC02DC0C83009F44EC0C9303D
:1002400030F4C630C1F1C73009F0E0C03DC0C9305C
:1002500009F44CC0CA3009F0D9C051C081E090E027
:1002600061E40E94BB008EB580930A01CFC081E09B
:1002700090E062E40E94BB008EB580930A01C6C084
:1002800081E090E063E40E94BB008EB580930A0198
:10029000BDC081E090E064E40E94BB008EB5809315
:1002A0000A01B4C081E090E065E40E94BB008EB515
:1002B00080930A01ABC081E090E066E40E94BB003D
:1002C0008EB580930A01A2C081E090E067E40E94AD
:1002D000BB008EB580930A0199C081E090E068E48C
:1002E0000E94BB008EB580930A0190C081E090E02F
:1002F00069E40E94BB008EB580930A0187C081E04B
:1003000090E06AE40E94BB008EB580930A017EC033
:10031000C53009F446C0C63070F4C23039F1C3307C
:1003200020F4C13009F072C018C0C33041F1C430AC
:1003300009F06CC02DC0C83009F44EC0C93030F48B
:10034000C630C1F1C73009F061C03DC0C93009F401
:100350004CC0CA3009F05AC051C081E090E061E65B
:100360000E94BB008EB580930A0150C081E090E0EE
:1003700062E60E94BB008EB580930A0147C081E00F
:1003800090E063E60E94BB008EB580930A013EC0F8
:1003900081E090E064E60E94BB008EB580930A0184
:1003A00035C081E090E065E60E94BB008EB5809389
:1003B0000A012CC081E090E066E60E94BB008EB589
:1003C00080930A0123C081E090E067E60E94BB00B1
:1003D0008EB580930A011AC081E090E068E60E9421
:1003E000BB008EB580930A0111C081E090E069E600
:1003F0000E94BB008EB580930A0108C081E090E0A6
:100400006AE60E94BB008EB580930A01DF91CF910E
:100410000895CF92DF92EF92FF920F931F93CF93A5
:10042000DF9380910001882309F489C0C6E0D1E000
:100430008E01015010400F2EFEEFEF2EFFEFFF2E2A
:10044000F02DEC0EFD1E0F2EFDEFCF2EFFEFDF2E59
:10045000F02DCC0EDD1E8FEF91EEA4E08150904088
:10046000A040E1F700C0000083E090E061E70E9457
:10047000BB008EB580930801883709F041C0AFE317
:10048000BCE91197F1F700C0000083E090E060E064
:100490000E94BB008EB58883EFE3FCE93197F1F74A
:1004A00000C0000083E090E060E00E94BB008EB5D9
:1004B000D8018C93EFE3FCE93197F1F700C000001D
:1004C00083E090E060E00E94BB008EB5D7018C9382
:1004D000EFE3FCE93197F1F700C0000083E090E022
:1004E00060E00E94BB008EB5D6018C9388B1846217
:1004F00088B9EFE3FCE93197F1F700C00000ABCF1A
:10050000883509F0A8CF88B1846288B985B1836045
:1005100085B98FEF92E5A7E081509040A040E1F7C8
:1005200000C0000042984598289829988FEF92E5DE
:10053000A7E081509040A040E1F700C00000DF91AB
:10054000CF911F910F91FF90EF90DF90CF90089582
:1005500080910601813009F05BC0909105019230D5
:1005600081F520910401213061F5909103019230D1
:1005700009F04EC085B1836085B98FEF93EDA0E39C
:1005800081509040A040E1F700C0000081E090E081
:100590006FEF0E94BB00AFE3BCE91197F1F700C019
:1005A000000081E090E061E40E94BB008FE39CE9E1
:1005B0000197F1F700C000008EB5809307011EBCC3
:1005C0000895913029F590910401913009F04BC0C4
:1005D00090910301913009F046C081E090E06FEF07
:1005E0000E94BB00AFE3BCE91197F1F700C0000027
:1005F00081E090E062E40E94BB008FE39CE90197F8
:10060000F1F700C000008EB5809307011EBC08956D
:10061000823049F590910501923029F590910401BD
:10062000923009F076C090910301923009F071C0C8
:1006300081E090E06FEF0E94BB00AFE3BCE911974F
:10064000F1F700C0000081E090E063E40E94BB008D
:100650008FE39CE90197F1F700C000008EB580930D
:1006600007011EBC0895833049F590910501933030
:1006700029F590910401933009F076C0909103011F
:10068000933009F071C081E090E06FEF0E94BB00F1
:10069000AFE3BCE91197F1F700C0000081E090E002
:1006A00064E40E94BB008FE39CE90197F1F700C06E
:1006B00000008EB5809307011EBC0895843049F573
:1006C00090910501943029F590910401943009F03E
:1006D00076C090910301943009F071C081E090E000
:1006E0006FEF0E94BB00AFE3BCE91197F1F700C0C8
:1006F000000081E090E065E40E94BB008FE39CE98C
:100700000197F1F700C000008EB5809307011EBC71
:100710000895853049F590910501953029F590911E
:100720000401953009F076C090910301953009F0ED
:1007300071C081E090E06FEF0E94BB00AFE3BCE9C5
:100740001197F1F700C0000081E090E066E40E949C
:10075000BB008FE39CE90197F1F700C000008EB564
:10076000809307011EBC0895863049F590910501DC
:10077000963029F590910401963009F077C0909158
:100780000301963009F072C081E090E06FEF0E94A3
:10079000BB00AFE3BCE91197F1F700C0000081E0B6
:1007A00090E067E40E94BB008FE39CE90197F1F7BA
:1007B00000C000008EB5809307011EBC08958730ED
:1007C00049F590910501973029F580910401873012
:1007D00009F074C080910301873009F06FC081E097
:1007E00090E06FEF0E94BB00AFE3BCE91197F1F717
:1007F00000C0000081E090E068E40E94BB008FE34D
:100800009CE90197F1F700C000008EB580930701C5
:100810001EBC0895883051F580910501883009F09B
:100820004DC080910401883009F048C080910301D7
:10083000883009F043C081E090E06FEF0E94BB0078
:10084000AFE3BCE91197F1F700C0000081E090E050
:1008500069E40E94BB008FE39CE90197F1F700C0B7
:1008600000008EB5809307011EBC0895893031F5D4
:1008700080910501893011F5809104018930F1F4EE
:10088000809103018930D1F481E090E06FEF0E9404
:10089000BB00AFE3BCE91197F1F700C0000081E0B5
:1008A00090E06AE40E94BB008FE39CE90197F1F7B6
:1008B00000C000008EB5809307011EBC0895809192
:1008C0000C01853009F4C6C0863090F4823009F4FA
:1008D00070C0833030F48823F1F0813009F05BC1BF
:1008E00041C0833009F480C0843009F054C197C0FE
:1008F000883009F400C1893038F4863009F4C5C065
:10090000873009F048C1DCC0893009F40FC18A3052
:1009100009F041C126C185B1836085B98FEF93EDA0
:10092000A0E381509040A040E1F700C0000081E0CA
:1009300090E06FEF0E94BB00AFE3BCE91197F1F7C5
:1009400000C0000081E090E060E00E94BB008FE307
:100950009CE90197F1F700C000008EB58093070174
:100960001EBC089585B1836085B98FEF93EDA0E338
:1009700081509040A040E1F700C0000081E090E08D
:100980006FEF0E94BB00AFE3BCE91197F1F700C025
:10099000000081E090E061E40E94BB008FE39CE9ED
:1009A0000197F1F700C000008EB5809307011EBCCF
:1009B000089581E090E06FEF0E94BB00AFE3BCE9D7
:1009C0001197F1F700C0000081E090E062E40E941E
:1009D000BB008FE39CE90197F1F700C000008EB5E2
:1009E000809307011EBC089581E090E06FEF0E94A4
:1009F000BB00AFE3BCE91197F1F700C0000081E054
:100A000090E063E40E94BB008FE39CE90197F1F75B
:100A100000C000008EB5809307011EBC089581E0E0
:100A200090E06FEF0E94BB00AFE3BCE91197F1F7D4
:100A300000C0000081E090E064E40E94BB008FE30E
:100A40009CE90197F1F700C000008EB58093070183
:100A50001EBC089581E090E06FEF0E94BB00AFE301
:100A6000BCE91197F1F700C0000081E090E065E477
:100A70000E94BB008FE39CE90197F1F700C00000E2
:100A80008EB5809307011EBC089581E090E06FEF62
:100A90000E94BB00AFE3BCE91197F1F700C0000072
:100AA00081E090E066E40E94BB008FE39CE901973F
:100AB000F1F700C000008EB5809307011EBC0895B9
:100AC00081E090E06FEF0E94BB00AFE3BCE91197BB
:100AD000F1F700C0000081E090E067E40E94BB00F5
:100AE0008FE39CE90197F1F700C000008EB5809379
:100AF00007011EBC089581E090E06FEF0E94BB00EB
:100B0000AFE3BCE91197F1F700C0000081E090E08D
:100B100068E40E94BB008FE39CE90197F1F700C0F5
:100B200000008EB5809307011EBC089581E090E01F
:100B30006FEF0E94BB00AFE3BCE91197F1F700C073
:100B4000000081E090E069E40E94BB008FE39CE933
:100B50000197F1F700C000008EB5809307011EBC1D
:100B6000089581E090E06FEF0E94BB00AFE3BCE925
:100B70001197F1F700C0000081E090E06AE40E9464
:100B8000BB008FE39CE90197F1F700C000008EB530
:100B9000809307011EBC089585B5836085BDEEE690
:100BA000F0E080818160808316BC089585B58E7FDA
:100BB00085BD85B58D7F85BDEEE6F0E080818E7FB9
:100BC00080838FE99FE00197F1F700C0000016BC19
:100BD0005D9808951F920F920FB60F9211242F93D4
:100BE0008F939F9380911501909116010196909398
:100BF00016018093150180911001882321F481E072
:100C00008093100133C080911501909116018233B9
:100C1000910561F510921601109215018091130152
:100C20009091140101969093140180931301809187
:100C300013019091140181309105C1F410921401B7
:100C400010921301809111019091120101969093DD
:100C50001201809311019BB180E298279BB928B1C2
:100C600094E0922798B998B1892788B99F918F917C
:100C70002F910F900FBE0F901F901895873009F499
:100C80004EC0883070F48330B1F1843028F4813064
:100C900041F1823058F520C08530B9F18630D0F569
:100CA0002FC0823409F44FC0833448F4893009F4EA
:100CB00040C08930C8F1813409F05CC03FC0843441
:100CC00009F44AC0843408F443C0853409F449C0A7
:100CD000863409F04FC04AC0589859985A985B9882
:100CE0000895589A59985A985B9808955898599A1F
:100CF0005A985B980895589A599A5A985B9808950B
:100D0000589859985A9A5B980895589A59985A9AA7
:100D10005B9808955898599A5A9A5B980895589AEA
:100D2000599A5A9A5B980895589859985A985B9A84
:100D30000895589A59985A985B9A08955898599ACC
:100D40005A985B9A0895589A599A5A985B9A0895B6
:100D5000589859985A9A5B9A589A59985A9A5B9AFD
:100D600008955898599A5A9A5B9A0895589A599A98
:100D70005A9A5B9A089589B180FD9FC049999DC098
:100D80004A999BC04B9999C010920C0108954999BA
:100D900096C04A9994C04B9992C081E080930C010F
:100DA0000895499B8FC04A998DC04B998BC082E0B2
:100DB00080930C010895499B87C04A9985C04B993F
:100DC00083C083E080930C010895499980C04A9BB9
:100DD0007EC04B997CC084E080930C0108954999B2
:100DE00078C04A9B76C04B9974C085E080930C0113
:100DF0000895499B71C04A9B6FC04B996DC086E0B6
:100E000080930C010895499B69C04A9B67C04B9928
:100E100065C087E080930C010895499962C04A99A2
:100E200060C04B9B5EC088E080930C010895499997
:100E30005AC04A9958C04B9B56C089E080930C0118
:100E40000895499B53C04A9951C04B9B4FC081E6BE
:100E500080930C010895499B4BC04A9949C04B9B14
:100E600047C082E680930C010895499944C04A9B8B
:100E700042C04B9B40C083E680930C010895499982
:100E80003CC04A9B3AC04B9B38C084E680930C011F
:100E90000895499B35C04A9B33C04B9B31C085E6C2
:100EA00080930C010895499B2DC04A9B2BC04B9BFE
:100EB00029C086E680930C010895489968CF89B1CE
:100EC00080FF6FCF489977CF89B180FF7ECF489957
:100ED00086CF89B180FF8DCF489995CF89B180FFAA
:100EE0009CCF4899A4CF89B180FFABCF4899B3CFAD
:100EF00089B180FFBACF4899C2CF89B180FFC9CFED
:100F00004899D1CF089554985C9A559A5D9885E395
:100F10008A95F1F70000089555985D9A85E38A95C2
:100F2000F1F7000008955098589A5198599A52989C
:100F30005A9A53985B9A0895509A5898519A59988A
:100F4000529A5A98539A5B980895CF93DF930E94D0
:100F500083070E949C075E988FE99FE00197F1F755
:100F600000C000005E9AD1E04F9979C08FEF91EEFA
:100F7000A4E081509040A040E1F700C000000E9432
:100F8000CC05CD2F909117019923B1F08FEF99EFF8
:100F9000A0E081509040A040E1F700C000000E9416
:100FA000D60595E09A95F1F70000589859985A9807
:100FB0005B9842984598D8CF80911001882321F3FF
:100FC00004C0809117018823E9F64C993EC08091B6
:100FD00018018823B1F7C093180180910D019091F9
:100FE0000E01019690930E0180930D0183309105BF
:100FF000E9F08430910538F48130910559F0823060
:101000009105F9F60DC084309105B1F08530910558
:10101000C1F618C0A3E0B1E08C910E943E06D1CF8A
:10102000E4E0F1E080810E943E06CBCFA5E0B1E094
:101030008C910E943E06C5CFE6E0F1E080810E94DF
:101040003E06BFCFC09317019DCF4C9BBACF809176
:101050001801882309F4B5CF10921801B2CF4F9B25
:1010600083CF80911701882309F47ECFDF91CF9140
:10107000089584B1836C84B92E982F9887B18C63BE
:1010800087B93898399888B18B6188B9569A5E9A31
:1010900057985F9A78948FE19EE40197F1F700C02A
:1010A00000000E949E00AFE1BEE41197F1F700C07E
:1010B000000081E780930B0106E011E078010894BD
:1010C000E108F1080F2EFEEFCF2EFFEFDF2EF02DFF
:1010D000C00ED11E0F2EFDEFAF2EFFEFBF2EF02D55
:1010E000A00EB11EC0E48FEF91EEA4E081509040BD
:1010F000A040E1F700C0000083E090E060910B01A8
:101100000E94BB008EB5809308018C3029F495E0D5
:101110009A95F1F70000E7CF803509F082C0429A36
:10112000459AAFE3BCE91197F1F700C0000081E0F8
:1011300090E06FEF0E94BB00EFE3FCE93197F1F71D
:1011400000C0000081E090E069E50E94BB008FE3F1
:101150009CE90197F1F700C0000083E090E06FE6A2
:101160000E94BB008FEF99E6A8E181509040A0401B
:10117000E1F700C0000083E090E06FE60E94BB0052
:10118000AFE3BCE91197F1F700C000000E945300E3
:101190008BB18C278BB98FEF99EFA0E081509040F5
:1011A000A040E1F700C000008BB18C278BB98FEF16
:1011B00099EFA0E081509040A040E1F700C000000E
:1011C0008BB18C278BB98FEF99EFA0E081509040C5
:1011D000A040E1F700C000008BB18C278BB98FEFE6
:1011E00099EFA0E081509040A040E1F700C00000DE
:1011F0008BB18C278BB98FEF99EFA0E08150904095
:10120000A040E1F700C000008BB18C278BB98FEFB5
:1012100099EFA0E081509040A040E1F700C00000AD
:1012200062CF8F3F09F05FCF8FEF91EEA4E0815046
:101230009040A040E1F700C0000083E090E060E053
:101240000E94BB008EB5D8018C938FEF91EEA4E085
:1012500081509040A040E1F700C0000083E090E0A2
:1012600060E00E94BB008EB5D7018C938FEF91EEAA
:10127000A4E081509040A040E1F700C0000083E06E
:1012800090E060E00E94BB008EB5D6018C938FEF9A
:1012900091EEA4E081509040A040E1F700C0000032
:1012A00083E090E060E00E94BB008EB5D5018C9396
:1012B0008FEF91EEA4E081509040A040E1F700C094
:1012C000000083E090E060E00E94BB008EB5809358
:1012D0000801883509F007CF0E94A50795E39A9584
:1012E000F1F700000E9493074F990DC00E94BB06C2
:1012F000A5E3AA95F1F700000E945F0480910C011C
:101300008823F1F404C089B14F99FDCFEFCF83E07A
:1013100090E064E50E94BB00EFE3FCE93197F1F750
:1013200000C0000083E090E064E50E94BB008FE312
:101330009CE90197F1F700C000000E945300D3CE52
:101340008636B9F083E090E061E50E94BB00AFE330
:10135000BCE91197F1F700C0000083E090E061E57F
:101360000E94BB00EFE3FCE93197F1F700C00000F9
:10137000BACE83E090E066E60E94BB008FE39CE972
:101380000197F1F700C0000083E090E066E60E945C
:10139000BB00AFE3BCE91197F1F700C00000A3CE9A
:0413A000F894FFCFEF
:0213A400010145
:00000001FF
