S010000031306D6F746F72732E737265630F
S11300000C942A000C9447000C9447000C9447006D
S11300100C9447000C9447000C9447000C94470040
S11300200C9447000C9447000C9447000C94470030
S11300300C9447000C9447000C9447000C94470020
S11300400C9447000C9447000C9447000C94470010
S11300500C94470011241FBECFE5D8E0DEBFCDBF0E
S113006010E0A0E6B0E0E2EBF6E002C005900D92ED
S1130070A036B107D9F710E0A0E6B0E001C01D92A8
S1130080AF37B107E1F70E942B030C9457030C948C
S113009000008FB582608FBD8EB589618EBD8FE102
S11300A09EE497BD86BD08958FB580688FBD86E1B7
S11300B09EE49BBD8ABD08958FB580628FBD86E1A5
S11300C09EE499BD88BD0895089508958FB58F77EE
S11300D08FBD1BBC1ABC08958FB58F7D8FBD19BC15
S11300E018BC089583B7836083BF89B7816089BFD3
S11300F012BE089583B78E7F83BF83B78D7F83BF7E
S113010089B78E7F89BF87EB9BE00197F1F700C029
S1130110000012BE089510927E0010927D0010928D
S11301207C00109276001092750010927400109268
S1130130730010927200109271001092700010926D
S11301406F0010926E0010926D0010926A0010926F
S11301506900109268001092670010926600109275
S11301606500109264001092630010926200109275
S113017061000E947A0015BA0895662309F44DC0FF
S113018085309105C1F1863091059CF4823091054A
S113019049F1833091052CF48130910509F085C033
S11301A01EC08330910509F18430910509F07DC0AA
S11301B01FC08830910541F18930910544F486309F
S11301C09105E1F08730910509F06FC01AC08930BC
S11301D09105E9F08A30910509F067C01BC0D89AEF
S11301E0D9980895DA9ADB980895DC9ADD980895F1
S11301F0DE9ADF980895A89AA9980895AA9AAB98C8
S11302000895AC9AAD980895AE9AAF980895909ACF
S113021091980895969A9798089585309105A1F13B
S1130220863091058CF48230910529F18330910553
S113023024F481309105C9F51BC083309105F1F098
S11302408430910591F51DC08830910531F18930D4
S113025091053CF486309105D1F08730910529F55C
S113026019C089309105E1F08A309105F1F41BC081
S1130270D898D9980895DA98DB980895DC98DD9891
S11302800895DE98DF980895A898A9980895AA98E3
S1130290AB980895AC98AD980895AE98AF9808952A
S11302A090989198089596989798089587B3806A3E
S11302B087BBBE98C69A8DB1816D8DB9089587B3F9
S11302C0806A87BBBE98C69A8DB181658DB9089541
S11302D0BE98C69ABD98C59ABC98C49ABF98C79A46
S11302E06E9A6C9808958FB9779BFECF8FB108955D
S11302F087B3806A87BBBE98C69A6E986C986898D4
S11303000895BE9ABD98C59ABF98C79A6E986C987E
S1130310089581E60E9473018FB180937B00883534
S113032089F0893518F4873509F505C0893589F0D0
S11303308A35E1F415C087E50E9473018FB180937B
S11303407A00089588E50E9473018FB18093790043
S1130350089589E70E9473018FB18093780008950E
S11303608AE50E9473018FB180937700089580918C
S11303707B00863409F4AEC0873490F4833409F4E6
S11303805BC0843430F4813419F1823409F062C1E1
S113039039C0843409F46AC0853409F05BC180C073
S11303A0893409F4E3C08A3438F4873409F4ACC0DE
S11303B0883409F04FC1C0C0893509F40BC18F3F9F
S11303C021F08A3409F046C1EBC010927B000895F5
S11303D088B3876088BB8FE79FE4A2E18150904097
S11303E0A040E1F700C00000C098C198C2981092E4
S11303F07B0081E090E061E00E94BD0081E0809399
S11304006000089588B3876088BB8FE79FE4A2E10A
S113041081509040A040E1F700C00000C098C1980E
S1130420C29810927B0082E090E061E00E94BD00DF
S113043081E080936000089588B3876088BB8FE76C
S11304409FE4A2E181509040A040E1F700C0000089
S1130450C098C198C29810927B0083E090E061E05C
S11304600E94BD0081E080936000089588B3876096
S113047088BB8FE79FE4A2E181509040A040E1F760
S113048000C00000C098C198C29810927B0084E01C
S113049090E061E00E94BD0081E0809360000895D7
S11304A088B3876088BB8FE79FE4A2E181509040C6
S11304B0A040E1F700C00000C098C198C298109213
S11304C07B0085E090E061E00E94BD0081E08093C4
S11304D06000089588B3876088BB8FE79FE4A2E13A
S11304E081509040A040E1F700C00000C098C1983E
S11304F0C29810927B0086E090E061E00E94BD000B
S113050081E080936000089588B3876088BB8FE79B
S11305109FE4A2E181509040A040E1F700C00000B8
S1130520C098C198C29887E090E061E00E94BD0045
S113053081E080936000089588B3876088BB8FE76B
S11305409FE4A2E181509040A040E1F700C0000088
S1130550C098C198C29810927B0088E090E061E056
S11305600E94BD0081E080936000089588B3876095
S113057088BB8FE79FE4A2E181509040A040E1F75F
S113058000C00000C098C198C29810927B0089E016
S113059090E061E00E94BD0081E0809360000895D6
S11305A088B3876088BB8FE79FE4A2E181509040C5
S11305B0A040E1F700C00000C098C198C298109212
S11305C07B008AE090E061E00E94BD0081E08093BE
S11305D06000089510927B0098B381E0892788BB5E
S11305E098B382E0892788BB98B384E0892788BBC5
S11305F081E090E060E00E94BD0082E090E060E075
S11306000E94BD0083E090E060E00E94BD0084E0B1
S113061090E060E00E94BD0085E090E060E00E9410
S1130620BD0086E090E060E00E94BD0087E090E0BD
S113063060E00E94BD0088E090E060E00E94BD00A0
S113064089E090E060E00E94BD008AE090E060E014
S11306500E94BD00089584B7806884BF84B7806811
S113066084BF8AB38FEF8ABB97B39F6097BB94B361
S113067084BB81B3836F81BB1BBAC098C198C298F5
S1130680C39815BA82B38C6082BB78940E944900E7
S11306900E9454000E945C000E94680180E00E9455
S11306A073018FB180937B000E94B701F7CFF89458
S10506B0FFCF76
S9030000FC
