:100000000C942A000C9447000C9447000C94470071
:100010000C9447000C9447000C9447000C94470044
:100020000C9447000C9447000C9447000C94470034
:100030000C9447000C9447000C9447000C94470024
:100040000C9447000C9447000C9447000C94470014
:100050000C94470011241FBECFE5D4E0DEBFCDBF16
:1000600011E0A0E6B0E0EAEFF7E002C005900D92E3
:10007000A031B107D9F711E0A0E1B1E001C01D92B4
:10008000A532B107E1F70E9457030C94FB030C94CF
:10009000000080B380FD04C081E0809323010EC086
:1000A000819902C082E007C0829902C083E003C048
:1000B000839907C084E08093230181E08093240129
:1000C00005C09498959896989798E3CF949A89EF5D
:1000D00090E00197F1F700C00000809B2CC0819B4D
:1000E0002AC0829B28C0839B26C081E08093220186
:1000F00094980895819B28C0829B26C0839B24C02E
:1001000082E08093220195980895819B26C0829B6E
:1001100024C0839B22C083E0809322019698089597
:10012000819BD4CF829BD2CF839BD0CF84E080931E
:10013000220197980895959A89EF90E00197F1F739
:1001400000C000008099D6CF969A89EF90E0019781
:10015000F1F700C000008099D8CF979A89EF90E01E
:100160000197F1F700C000008099DACFAFCF8091FE
:100170002301813079F480912201813009F442C059
:10018000823009F43FC08330E9F1843009F042C085
:1001900081E438C0823091F480912201813011F4E1
:1001A00084E030C0823011F485E02CC0833011F43B
:1001B00086E028C0843071F582E424C0833091F455
:1001C00080912201813011F487E01CC0823011F44B
:1001D00088E018C0833011F489E014C08430D1F471
:1001E00083E410C08430B1F480912201813011F495
:1001F00081E508C0823019F41092200108958330FF
:1002000021F482E5809320010895843019F484E478
:1002100080932001089580910E0190910F01FC01BF
:10022000EE0FFF1FEA5EFE4F209120012083118216
:10023000019790930F0180930E01009749F484E099
:1002400090E090930F0180930E0181E08093210153
:10025000089587B3806A87BBBE98C69A8DB1816DB9
:100260008DB9089587B3806A87BBBE98C69A8DB151
:1002700081658DB90895BE9AC698BD98C59ABC98F7
:10028000C49ABF98C79A6E9A6C9808958FB9779B55
:10029000FECF8FB10895809121018823C1F0109283
:1002A00021018FEF0E94460180911E010E944601AC
:1002B00080911C010E94460180911A010E94460112
:1002C000809118010E94460188E50E944601089528
:1002D00087B3806A87BBBE98C69A6E986C986898F8
:1002E0000895BE9ABD98C59ABF98C79A6E986C98A3
:1002F0000895C09A83E08A95F1F70000C0980895A8
:100300001ABAC19A88B3887F88BB02C00E9479015B
:10031000DF99FCCF8FEF8ABB0895CF93DF930F92C5
:10032000CDB7DEB789830E94800189818BBB88B3FA
:10033000897F88BB0E9479011BBA0F90DF91CF9112
:100340000895CF93DF930F92CDB7DEB789830E94D4
:10035000800189818BBBC198C29A0E9479011BBA26
:100360000F90DF91CF910895CF93DF93EC0109C0F7
:100370008A910E94A10189EF90E00197F1F700C0F6
:10038000000088818823A1F7DF91CF910895CF9352
:10039000DF93EC0108C00E94A1018FE097E2019772
:1003A000F1F700C0000089918823A9F7DF91CF9170
:1003B000089580911201813009F04FC00E948D0193
:1003C00083EF91E00197F1F700C0000080E690E034
:1003D0000E94C70183EF91E00197F1F700C0000090
:1003E0001092120183EC99E00197F1F700C0000030
:1003F00080E50E9446018FB1809313018D3DC1F3CA
:100400008F36C9F41092130181E00E948D0183EFB1
:1004100091E00197F1F700C000008FE690E00E94A4
:10042000C70187E893E10197F1F700C0000081E080
:100430008093210108958137D9F61092130181E04C
:100440000E948D0183EF91E00197F1F700C0000059
:100450008AE790E00E94C701CBCF0895CF9381E057
:100460000E948D0183EF91E00197F1F700C0000039
:1004700088E890E00E94C70183EF91E00197F1F7CF
:1004800000C00000C1E083B380FF06C0999B04C098
:100490009A9B02C09B992CC0C093120183EC99E0F7
:1004A0000197F1F700C000000E94D901809121015D
:1004B000882349F381E00E948D0183EF91E0019749
:1004C000F1F700C0000088E990E00E94C70183EFC7
:1004D00091E00197F1F700C00000CF910895999B3A
:1004E000D2CF9A9BD0CF9B9BCECF10921201CBCF75
:1004F0009899F5CFC8CF81E00E948D0183EF91E0FC
:100500000197F1F700C0000086EA90E00E94C70161
:1005100083EF91E00197F1F700C00000809BFECFD0
:10052000819BFCCF829BFACF839BF8CF0E9449002E
:100530000E94B7000E94AB020E940B018091210132
:10054000882361F3949895989698979893E09A9554
:10055000F1F70000089583E294EF0197F1F700C0EE
:100560000000809120018730E1F1883070F4833001
:1005700031F1843028F48130E1F08230E8F440C079
:10058000853031F1863038F520C0823439F183343A
:1005900038F4893061F1893038F18134E9F512C0DD
:1005A0008434B1F1843430F1813539F18235A1F5EB
:1005B0002AC08CEA90E029C08EEA90E026C080EB49
:1005C00090E023C082EB90E020C084EB90E01DC05F
:1005D00086EB90E01AC088EB90E017C08AEB90E0C1
:1005E00014C08CEB90E011C08EEB90E00EC080EC5C
:1005F00090E00BC082EC90E008C00E947B0208955E
:1006000084EC90E002C086EC90E00E94C70108955F
:1006100084ED90E00E94C701089585EA9EE001976D
:10062000F1F700C0000081E00E948D0183EF91E0AE
:100630000197F1F700C0000086ED90E00E94C7012D
:1006400083EC99E00197F1F700C0000010922401BB
:1006500010922301109222011092200110921F018A
:1006600010921E0110921D0110921C0110921B018C
:1006700010921A011092190110921801109217018C
:100680001092160184E090E090930F0180930E0188
:100690001092150110921401109212011092210172
:1006A0001092130110921101109210010895BB9A3B
:1006B000C39880EF81BB8FE082BB14BA8FEF85BBFC
:1006C00087B3876087BB85EA9EE00197F1F700C09A
:1006D000000081E00E948D01A3EFB1E01197F1F7D6
:1006E00000C0000088E30E948D01B0E1BA95F1F7E7
:1006F00000C08CE00E948D0180E18A95F1F700C076
:100700000E943B01C1E00E940D03A3EFB1E01197ED
:10071000F1F700C000000E947B0288E70E944601BA
:100720008FB1809313010E94A101809113018F3F2B
:1007300011F40000F2CF813719F40E944B01EDCF84
:100740008135E9F481E00E948D0183EF91E001970A
:10075000F1F700C0000087EE90E00E94C7018FE72C
:100760009AE1A6E081509040A040E1F700C000006F
:100770000E942E0280912101882379F21AC08435CB
:1007800061F6C093210181E00E948D01A3EFB1E0E9
:100790001197F1F700C0000086EF90E00E94C701BA
:1007A0008FE79AE1A6E081509040A040E1F700C0B9
:1007B00000008FE40E9446018FB1809313018137BE
:1007C000C1F781E00E948D01A3EFB1E01197F1F72D
:1007D00000C0000086E091E00E94C70183EF91E035
:1007E0000197F1F700C00000A7E8B3E11197F1F716
:0A07F00000C0000088CFF894FFCF8E
:1007FA00706C6561736520636F6C6C6563740072FD
:10080A0065636569766564206F00726563656976FC
:10081A0065642071204F4B0053454E534F5220467A
:10082A00554E4354494F4E007465737420636F6D7F
:10083A00706C6574650050494E3A200031003200F0
:10084A0033004100340035003600420037003800DA
:10085A00390043003000766572696679696E6720EF
:10086A0070696E00440065766572797468696E67AE
:10087A002072657365740048414E47204F4E2044EC
:10088A00554445212100494E56414C49442050497E
:10089A004E2042524F00484D4D4D2E2E2E00040040
:00000001FF
